{
  "_format": "hh-sol-artifact-1",
  "contractName": "Escrow",
  "sourceName": "contracts/Escrow.sol",
  "abi": [
    {
      "anonymous": false,
      "inputs": [
        {
          "indexed": true,
          "internalType": "uint256",
          "name": "escrowId",
          "type": "uint256"
        },
        {
          "indexed": true,
          "internalType": "address",
          "name": "creator",
          "type": "address"
        }
      ],
      "name": "EscrowCancelled",
      "type": "event"
    },
    {
      "anonymous": false,
      "inputs": [
        {
          "indexed": true,
          "internalType": "uint256",
          "name": "escrowId",
          "type": "uint256"
        },
        {
          "indexed": true,
          "internalType": "address",
          "name": "recipient",
          "type": "address"
        }
      ],
      "name": "EscrowClaimed",
      "type": "event"
    },
    {
      "anonymous": false,
      "inputs": [
        {
          "indexed": true,
          "internalType": "uint256",
          "name": "escrowId",
          "type": "uint256"
        },
        {
          "indexed": true,
          "internalType": "address",
          "name": "creator",
          "type": "address"
        },
        {
          "indexed": true,
          "internalType": "address",
          "name": "recipient",
          "type": "address"
        },
        {
          "indexed": false,
          "internalType": "uint256",
          "name": "amount",
          "type": "uint256"
        },
        {
          "indexed": false,
          "internalType": "uint256",
          "name": "expiryTime",
          "type": "uint256"
        }
      ],
      "name": "EscrowCreated",
      "type": "event"
    },
    {
      "inputs": [
        {
          "internalType": "uint256",
          "name": "escrowId",
          "type": "uint256"
        }
      ],
      "name": "cancelEscrow",
      "outputs": [],
      "stateMutability": "nonpayable",
      "type": "function"
    },
    {
      "inputs": [
        {
          "internalType": "uint256",
          "name": "escrowId",
          "type": "uint256"
        }
      ],
      "name": "claimEscrow",
      "outputs": [],
      "stateMutability": "nonpayable",
      "type": "function"
    },
    {
      "inputs": [
        {
          "internalType": "address",
          "name": "recipient",
          "type": "address"
        },
        {
          "internalType": "uint256",
          "name": "expiryTime",
          "type": "uint256"
        }
      ],
      "name": "createEscrow",
      "outputs": [
        {
          "internalType": "uint256",
          "name": "",
          "type": "uint256"
        }
      ],
      "stateMutability": "payable",
      "type": "function"
    },
    {
      "inputs": [],
      "name": "escrowCounter",
      "outputs": [
        {
          "internalType": "uint256",
          "name": "",
          "type": "uint256"
        }
      ],
      "stateMutability": "view",
      "type": "function"
    },
    {
      "inputs": [
        {
          "internalType": "uint256",
          "name": "",
          "type": "uint256"
        }
      ],
      "name": "escrows",
      "outputs": [
        {
          "internalType": "address",
          "name": "creator",
          "type": "address"
        },
        {
          "internalType": "address",
          "name": "recipient",
          "type": "address"
        },
        {
          "internalType": "uint256",
          "name": "amount",
          "type": "uint256"
        },
        {
          "internalType": "uint256",
          "name": "createdAt",
          "type": "uint256"
        },
        {
          "internalType": "uint256",
          "name": "expiryTime",
          "type": "uint256"
        },
        {
          "internalType": "bool",
          "name": "isClaimed",
          "type": "bool"
        },
        {
          "internalType": "bool",
          "name": "isCancelled",
          "type": "bool"
        }
      ],
      "stateMutability": "view",
      "type": "function"
    },
    {
      "inputs": [
        {
          "internalType": "uint256",
          "name": "escrowId",
          "type": "uint256"
        }
      ],
      "name": "getEscrow",
      "outputs": [
        {
          "internalType": "address",
          "name": "creator",
          "type": "address"
        },
        {
          "internalType": "address",
          "name": "recipient",
          "type": "address"
        },
        {
          "internalType": "uint256",
          "name": "amount",
          "type": "uint256"
        },
        {
          "internalType": "uint256",
          "name": "createdAt",
          "type": "uint256"
        },
        {
          "internalType": "uint256",
          "name": "expiryTime",
          "type": "uint256"
        },
        {
          "internalType": "bool",
          "name": "isClaimed",
          "type": "bool"
        },
        {
          "internalType": "bool",
          "name": "isCancelled",
          "type": "bool"
        }
      ],
      "stateMutability": "view",
      "type": "function"
    },
    {
      "inputs": [
        {
          "internalType": "address",
          "name": "creator",
          "type": "address"
        }
      ],
      "name": "getEscrowsByCreator",
      "outputs": [
        {
          "internalType": "uint256[]",
          "name": "",
          "type": "uint256[]"
        }
      ],
      "stateMutability": "view",
      "type": "function"
    },
    {
      "inputs": [
        {
          "internalType": "address",
          "name": "recipient",
          "type": "address"
        }
      ],
      "name": "getEscrowsByRecipient",
      "outputs": [
        {
          "internalType": "uint256[]",
          "name": "",
          "type": "uint256[]"
        }
      ],
      "stateMutability": "view",
      "type": "function"
    }
  ],
  "bytecode": "0x608060405234801561001057600080fd5b50610c5f806100206000396000f3fe60806040526004361061007b5760003560e01c8063c7ceafea1161004e578063c7ceafea14610219578063c900594f1461022f578063dda3c5ac1461025c578063e01824361461027c57600080fd5b8063012f52ee146100805780632ce947db146101325780634614874e146101545780637d19e59614610175575b600080fd5b34801561008c57600080fd5b506100e961009b366004610b11565b6000602081905290815260409020805460018201546002830154600384015460048501546005909501546001600160a01b039485169593909416939192909160ff8082169161010090041687565b604080516001600160a01b0398891681529790961660208801529486019390935260608501919091526080840152151560a0830152151560c082015260e0015b60405180910390f35b34801561013e57600080fd5b5061015261014d366004610b11565b61029c565b005b610167610162366004610b46565b6104d0565b604051908152602001610129565b34801561018157600080fd5b506100e9610190366004610b11565b60009081526020818152604091829020825160e08101845281546001600160a01b039081168083526001840154909116938201849052600283015494820185905260038301546060830181905260048401546080840181905260059094015460ff808216151560a0860181905261010090920416151560c0909401849052919694959490939290565b34801561022557600080fd5b5061016760015481565b34801561023b57600080fd5b5061024f61024a366004610b70565b6106cf565b6040516101299190610b92565b34801561026857600080fd5b5061024f610277366004610b70565b6107e5565b34801561028857600080fd5b50610152610297366004610b11565b6108eb565b600081815260208190526040902060018101546001600160a01b0316331461030b5760405162461bcd60e51b815260206004820152601860248201527f4f6e6c7920726563697069656e742063616e20636c61696d000000000000000060448201526064015b60405180910390fd5b600581015460ff16156103525760405162461bcd60e51b815260206004820152600f60248201526e105b1c9958591e4818db185a5b5959608a1b6044820152606401610302565b6005810154610100900460ff161561039f5760405162461bcd60e51b815260206004820152601060248201526f115cd8dc9bddc818d85b98d95b1b195960821b6044820152606401610302565b80600401544211156103e45760405162461bcd60e51b815260206004820152600e60248201526d115cd8dc9bddc8195e1c1a5c995960921b6044820152606401610302565b60058101805460ff1916600190811790915581015460028201546040516000926001600160a01b031691908381818185875af1925050503d8060008114610447576040519150601f19603f3d011682016040523d82523d6000602084013e61044c565b606091505b505090508061048f5760405162461bcd60e51b815260206004820152600f60248201526e151c985b9cd9995c8819985a5b1959608a1b6044820152606401610302565b60018201546040516001600160a01b039091169084907fcfae914ad45ea6abe3cef4ee24efdcaaa51239ced93de6801247d7b1f158905b90600090a3505050565b60008034116105215760405162461bcd60e51b815260206004820152601d60248201527f416d6f756e74206d7573742062652067726561746572207468616e20300000006044820152606401610302565b6001600160a01b03831661056b5760405162461bcd60e51b8152602060048201526011602482015270125b9d985b1a59081c9958da5c1a595b9d607a1b6044820152606401610302565b4282116105ba5760405162461bcd60e51b815260206004820152601c60248201527f457870697279206d75737420626520696e2074686520667574757265000000006044820152606401610302565b60018054600091826105cb83610bd6565b909155506040805160e081018252338082526001600160a01b038881166020808501828152348688018181524260608901908152608089018e8152600060a08b0181815260c08c018281528e8352828952918d90209b518c54908b166001600160a01b0319918216178d55965160018d01805491909b16971696909617909855915160028a0155516003890155516004880155905160059096018054945115156101000261ff00199715159790971661ffff19909516949094179590951790925584519384529083018890529394509184917f59e4b8728799382406714f1c57de5c893d2772f9a8bf9950c5afe4397e648654910160405180910390a49392505050565b60606000805b600154811015610723576000818152602081905260409020600101546001600160a01b03808616911603610711578161070d81610bd6565b9250505b8061071b81610bd6565b9150506106d5565b5060008167ffffffffffffffff81111561073f5761073f610bfd565b604051908082528060200260200182016040528015610768578160200160208202803683370190505b5090506000805b6001548110156107db576000818152602081905260409020600101546001600160a01b038088169116036107c957808383815181106107b0576107b0610c13565b6020908102919091010152816107c581610bd6565b9250505b806107d381610bd6565b91505061076f565b5090949350505050565b60606000805b600154811015610836576000818152602081905260409020546001600160a01b03808616911603610824578161082081610bd6565b9250505b8061082e81610bd6565b9150506107eb565b5060008167ffffffffffffffff81111561085257610852610bfd565b60405190808252806020026020018201604052801561087b578160200160208202803683370190505b5090506000805b6001548110156107db576000818152602081905260409020546001600160a01b038088169116036108d957808383815181106108c0576108c0610c13565b6020908102919091010152816108d581610bd6565b9250505b806108e381610bd6565b915050610882565b600081815260208190526040902080546001600160a01b031633146109525760405162461bcd60e51b815260206004820152601760248201527f4f6e6c792063726561746f722063616e2063616e63656c0000000000000000006044820152606401610302565b600581015460ff16156109995760405162461bcd60e51b815260206004820152600f60248201526e105b1c9958591e4818db185a5b5959608a1b6044820152606401610302565b6005810154610100900460ff16156109e75760405162461bcd60e51b8152602060048201526011602482015270105b1c9958591e4818d85b98d95b1b1959607a1b6044820152606401610302565b80600401544211610a2c5760405162461bcd60e51b815260206004820152600f60248201526e139bdd08195e1c1a5c9959081e595d608a1b6044820152606401610302565b60058101805461ff001916610100179055805460028201546040516000926001600160a01b031691908381818185875af1925050503d8060008114610a8d576040519150601f19603f3d011682016040523d82523d6000602084013e610a92565b606091505b5050905080610ad35760405162461bcd60e51b815260206004820152600d60248201526c1499599d5b990819985a5b1959609a1b6044820152606401610302565b81546040516001600160a01b039091169084907f6f44c80719cb2f74bdbd68b7af10147acb9b52e2675ad02f9c87f0985995993890600090a3505050565b600060208284031215610b2357600080fd5b5035919050565b80356001600160a01b0381168114610b4157600080fd5b919050565b60008060408385031215610b5957600080fd5b610b6283610b2a565b946020939093013593505050565b600060208284031215610b8257600080fd5b610b8b82610b2a565b9392505050565b6020808252825182820181905260009190848201906040850190845b81811015610bca57835183529284019291840191600101610bae565b50909695505050505050565b600060018201610bf657634e487b7160e01b600052601160045260246000fd5b5060010190565b634e487b7160e01b600052604160045260246000fd5b634e487b7160e01b600052603260045260246000fdfea26469706673582212207892fe8bb93986d1379c591d12f9c8534b8c8ddb8844ae2f5d672e78051f05ec64736f6c63430008140033",
  "linkReferences": {},
  "deployedLinkReferences": {}
}